:100000000C9434000C9449000C9449000C94490061
:100010000C9449000C9449000C9449000C9449003C
:100020000C9449000C9449000C9449000C9449002C
:100030000C9449000C9449000C9449000C9449001C
:100040000C9449000C9449000C9449000C9449000C
:100050000C9449000C9449000C9449000C944900FC
:100060000C9449000C94490011241FBECFEFD8E036
:10007000DEBFCDBF11E0A0E0B1E0EAEEF0E002C0EB
:1000800005900D92A431B107D9F70E944B000C9452
:1000900073000C9400008FEF84B98AB917B888B93F
:1000A00060E171E0A0E1B1E040E051E08D918BB9F9
:1000B000FA0120E030E086B190E0022E02C0959572
:1000C00087950A94E2F780FD02C0808185B92F5F91
:1000D0003F4F31962430310571F74C5F5F4F461723
:0A00E000570721F7DFCFF894FFCF98
:1000EA004079243019120278001808034621060EB6
:0400FA00FEFDFBF715
:00000001FF
