S0130000446973706C6179377365672E73726563C5
S11300000C9434000C9446000C9446000C94460066
S11300100C9446000C9446000C9446000C94460044
S11300200C9446000C9446000C9446000C94460034
S11300300C9446000C9446000C9446000C94460024
S11300400C9446000C9446000C9446000C94460014
S11300500C9446000C9446000C9446000C94460004
S11300600C9446000C94460011241FBECFEFD8E038
S1130070DEBFCDBF21E0A0E0B1E001C01D92A430FD
S1130080B207E1F70E9448000C9480000C94000031
S11300908FEF8AB98BB987B988B914B885B941E0AB
S11300A050E0E9E774E260E35093030140930201F6
S11300B088B18F6088B98091020190910301809387
S11300C000019093010198B19A0102C0220F331FDD
S11300D08A95E2F7822F8095892388B9189BEBB91A
S11300E0199B7BB91A9B6BB9809102019091030112
S11300F0019690930301809302010597CCF2D4CF2B
S1070100F894FFCF9D
S9030000FC
